:020000040800F2
:10000000B804002001010008291500082515000882
:1000100027150008390600087519000800000000BF
:100020000000000000000000000000004D15000866
:100030003B060008000000004B1500084F150008A3
:100040001B0100081B0100081B0100081B01000820
:100050001B0100081B0100081B0100081B01000810
:100060001B0100081B0100081B0100081B01000800
:100070001B0100081B0100081B0100081B010008F0
:100080001B0100081B0100081B0100081B010008E0
:100090001B0100081B0100081B0100081B010008D0
:1000A0001B0100081B0100081B0100081B010008C0
:1000B0001B0100081B010008F51500081B010008C2
:1000C0001B0100081B0100081B0100081B010008A0
:1000D0001B010008691900081B0100081B0100082A
:1000E0001B0100081B0100081B010008DFF80CD0F1
:1000F00000F0E0F8004800472D1A0008B80400207E
:100100000648804706480047FEE7FEE7FEE7FEE7B1
:10011000FEE7FEE7FEE7FEE7FEE7FEE7AD150008B7
:10012000ED000008421C10F8011B0029FBD1801AC9
:10013000704700000FB400B58DB010A909900B9066
:1001400000914FF0FF300A9000200C900548069077
:10015000054807906A4609A80F9900F07DF80DB090
:100160005DF814FB75020008930200082DE9FF5F9B
:10017000D2E901A74FF00008916999461446DDF8CD
:1001800038B0464601988847054659EA0B0005D025
:1001900009E0A169761C019888470546216A28462E
:1001A00088470028F5D1681C03D05FEACA7005D0E3
:1001B00015E04FF0FF3004B0BDE8F09F2068011D4E
:1001C0002160D0F800800AE05FEACA7001D108F827
:1001D000015BA169761C7F1E019888470546002FA8
:1001E0001ADD681C18D0B9F1000F0DD0E81705EB27
:1001F000D060421120F01F0059F822102A1A012065
:1002000090400142E0D107E0BBF1000FDCD1216A50
:10021000284688470028D7D0E16901988847BBF174
:10022000000F07D1002E05DD5FEACA7002D1002160
:1002300088F80010A068B84203DDBBF1000F03D0BE
:1002400017B16FF00100B6E73046B4E70268114419
:100250001378016018467047D16004495161044920
:10026000116200211161114600F03CB84D020008F6
:10027000D9020008426842B1016811F8013B23B17C
:10028000521EC0E90012184670470121C160881E45
:10029000704742685AB1C368016843B983688B42AA
:1002A00005D0491E521CC0E90012002070474FF0D3
:1002B000FF307047064C074D06E0E06840F0010350
:1002C00094E8070098471034AC42F6D3FFF712FFCA
:1002D000B41B0008D41B0008C0B24FF4F05100F06A
:1002E00097B900002DE9F34F8BB04FF0000801F1F2
:1002F0000C000C464FF0010B46460DF1080A019028
:100300006269012101989047051E2DD0252D2CD022
:10031000216A8847C0B16269012101989047216A2A
:1003200088470028F7D1411E62690198904700E094
:10033000761CA1690B988847216A88470028F7D165
:10034000E1690B988847DBE7A1690B988847074666
:10035000A84201D1761CD3E7E1690B9888477F1C3E
:1003600002D1B8F1000F6FD046E1002762693D4627
:100370003946019890472A2804D1626901210198E1
:1003800090470125DFF88492626901210198904726
:10039000A0F130010A290AD24F45E5DC07EB8701BD
:1003A00000EB4107303FDFD445F01005ECE7E906EC
:1003B00001D46FF000476C280AD04C2814D068286C
:1003C00015D06A280DD074281CD07A281AD01DE0C8
:1003D00062690121019890476C2802D045F004051C
:1003E00014E045F002050DE045F020050AE06269E1
:1003F000012101989047682802D045F0080505E0E2
:1004000045F400656269012101989047C4E90157EC
:1004100065283DD019DC58287AD00CDC452837D027
:1004200004DC252826D0412831D131E046282FD0C0
:1004300047282CD12CE05B2877D0612828D063286E
:100440007CD0642823D15AE0D0E06F2848D008DC63
:1004500066281DD067281BD0692821D06E2816D1A8
:1004600027E0702845D0732868D0752847D07828B1
:100470000DD14DE0A1690B988847054625283FF42A
:1004800069AFE1690B9888476D1C3FF46AAFB3E030
:1004900023466A466FF001000B99AFF300809EE09F
:1004A00045F040006060A80723464FF0000236D4B4
:1004B0003EE0E8077FF447AF2068011D2160006837
:1004C000290501D506701BE7290701D5068017E726
:1004D000A90703D5F117C0E9006111E706600FE72E
:1004E00045F040006060A80723464FF0080216D48C
:1004F0001EE040F60E0125EA0100606016E045F0BE
:1005000040006060A80723464FF00A0207D40FE0BE
:1005100045F040006060A80708D5234610226FF020
:1005200001000B99AFF3008059E007E02346102249
:100530006FF001000B99AFF3008050E04FF000091D
:100540004F464B46632802D05B2806D040E0E806C1
:1005500001D40120A06001273AE0626901210198DD
:1005600090475E2805D14FF001096269494601981C
:100570009047216939B900210A46534643F82120A2
:10058000491C0829FADBB0B3216969B9C11700EB2E
:10059000D16253110AEB830122F01F02821A01205B
:1005A0000B68904003430B606269012101989047FA
:1005B0005D28E8D1B9F1000F09D00020514651F86B
:1005C0002020D24341F82020401C0828F7DB02AB52
:1005D000224600976FF001000B99FFF7C7FD002836
:1005E0000CDA401C08D1BBF1000F05D04FF0FF30F2
:1005F0000DB0BDE8F08FFFE74046F9E7E90701D10C
:1006000008F1010806444FF0000B79E6CCCCCC0C85
:100610007F2801D9002208E0064A02EB5002C007F9
:10062000127800D1120902F00F0201209040084018
:1006300070470000741B0008FEE7704710B590F883
:1006400021100024022903D00421816301243DE00C
:1006500001680A6822F00E020A6001680A6822F046
:1006600001020A601A4A0168914201D1012121E088
:10067000174A1432914201D110211BE0144A28324A
:10068000914201D1891515E0114A3C32914201D1C4
:1006900089140FE00E4A5032914202D14FF480315A
:1006A00008E00B4A6432914202D14FF4801101E01C
:1006B0004FF08071064A083A5160012180F82110FC
:1006C000002180F82010416B01B18847204610BD01
:1006D0000800024031B500F0E9F8009C0546601CB6
:1006E00000D0641C00F0E2F8401BA042FAD338BDF1
:1006F0002DE9F84FDFF890A100220AF1040B14460F
:1007000001274FF00F090BF1040E00BF0B6807FA29
:1007100004F52B40AB4274D1DFF870C14E68A6EBF4
:100720000C0866452BD00DDC032E34D005DC36B327
:10073000012E19D0022E2FD11BE0112E16D0122E11
:100740002AD119E0B8F5881F19D006DCB8F5803F2A
:1007500015D0B8F5801F1FD111E0B8F5001F0ED0DD
:10076000B8F5041F18D10AE0CA6815E0CA68121D5E
:1007700012E0CA6808320FE0CA680C320CE08A68DE
:100780002AB1012A4FF0080203D0456104E0042297
:1007900002E0056100E00022FF2B01D8064601E0DF
:1007A00000F104064FEA840501D9A5F12005D6F829
:1007B00000C009FA05F82CEA080C02FA05F54CEA23
:1007C000050CC6F800C04D68ED0057D5304DAE6938
:1007D00046F00106AE61AD6924F0030605F001059F
:1007E00000952C4D06EB050CDCF80850A6074FEAE7
:1007F000167809FA08F6B543274EB04202D1002612
:1008000010E03BE0254EB04201D101260AE0244E23
:10081000B04201D1022605E0224EB04201D10326AA
:1008200000E0042606FA08F62E43CCF808604D686E
:10083000DAF80060ED03554601D51E4300E09E4303
:100840002E604D68DBF80060AD035D4601D51E43A8
:1008500000E09E432E604D68DEF80060ED027546B4
:1008600001D51E4300E09E432E604D68AD020E4D43
:100870002E6801D51E4300E09E432E60641C102CA0
:10088000FFF444AFBDE8F88F0004014000001110F0
:10089000001002400000014000080140000C01402F
:1008A00000100140001401400C04014001480068A0
:1008B000704700000800002002480168491C0160E0
:1008C0007047000008000020074810B5016841F09B
:1008D00010010160032000F0B9F8002000F006F8D4
:1008E00000F03EF8002010BD0020024000B5014697
:1008F00087B000221E2000F089F81E2000F07AF850
:100900001348C16941F00401C161C06905A900F043
:1009100004000690684600F055F900F079F90D4999
:100920000D4AB0FBF1F10D48491E0260416040F2F2
:10093000E7320021C0E90321816000F068FB10B1BB
:10094000012007B000BD054800F07DFBF9E700007D
:100950000010024040420F000008004078000020D4
:10096000224808B5816941F001018161816901F086
:1009700001010091C16941F08051C161C06900F07D
:1009800080500090032000F061F8002211466FF0C3
:100990000B0000F03BF8002211466FF00A0000F057
:1009A00035F8002211466FF0090000F02FF8002200
:1009B0001146501F00F02AF800221146101F00F0C7
:1009C00025F800221146901E00F020F80022114662
:1009D000501E00F01BF80648416821F0E0614160BC
:1009E000416841F00071416008BD00000010024004
:1009F0000000014000F01F020121914040098000E9
:100A000000F1E020C0F8001170470000F0B40E4B78
:100A10001B680C46C3F30223C3F10705042D00D95C
:100A20000425191D072901D2002300E0DB1E012641
:100A300006FA05F1491E214099409E40761E164057
:100A40003143F0BC00F071BD0CED00E0064900F050
:100A5000070208684FF6FF03184040EA0220034AE5
:100A600010430860704700000CED00E00000FA053C
:100A70002DE9F047DFF83C8105460E46D8F8000026
:100A800000F00700B0420CD2D8F8001021F00701A6
:100A90003143C8F80010D8F8000000F00700B04259
:100AA00063D12878444C800705D56068A96820F098
:100AB000F000084360602878C00745D068680128C6
:100AC00016D02168022816D0890700294DDA6168FE
:100AD00021F0030101436160FFF7E8FE6968074602
:100AE00041F2883001290FD00229814619D027E030
:100AF00021688903E9E78901E7E700BFFFF7D6FE30
:100B0000C11B494501D918E081466068C0F38100E6
:100B10000128F3D118E000BFFFF7C8FEC11B49450B
:100B20000BD86068C0F381000228F5D10CE000BF4B
:100B3000FFF7BCFEC11B494502D90320BDE8F08781
:100B4000606810F00C0FF3D1D8F80010404601F0A7
:100B50000701B1420BD9016821F00701314301605F
:100B6000006800F00700B04201D00120E6E72878D5
:100B7000400705D56068E96820F4E06008436060DC
:100B80002878000706D56068296920F4605040EA9B
:100B9000C100606000F05CF86168084AC1F30311AD
:100BA000515CC840064908600020FFF79FFE002006
:100BB000C4E7000000200240001002405C1B000857
:100BC0000C0000200F2202600C4A536803F003035C
:100BD0004360536803F0F0038360536803F4E063F9
:100BE000C36052684FF4E06303EAD2020261044832
:100BF000006800F007000860704700000010024025
:100C00000020024001480068704700000C000020EE
:100C10000448054900684968044AC1F30221515C4F
:100C2000C84070470C000020001002406C1B0008F8
:100C30000448054900684968044AC1F3C221515C6F
:100C4000C84070470C000020001002406C1B0008D8
:100C500010B512A385B00FCB8DE80F0013A0144B75
:100C6000006804905A68134802F00C0104290FD060
:100C700008290DD1C2F38344D2031DF8041009D50D
:100C80005A6804ABC2F340429A5CB0FBF2F04843AE
:100C900005B010BD08484843FAE700000203040508
:100CA000060708090A0B0C0D0E0F101001020000B8
:100CB0000010024000127A0000093D002DE9F84FB3
:100CC00004460078B94DC00748D06868C0F3810079
:100CD000012807D06868C0F38100022809D168683C
:100CE000C00306D52868800338D5606800286FD017
:100CF00034E06068B0F5803F0BD010B1B0F5A02FA4
:100D000011D0286820F480302860286820F48020E2
:100D100002E0286840F480302860606888B1FFF7FE
:100D2000C5FD064609E0286840F480202860F0E709
:100D3000FFF7BCFD801B642875D828688003F7D5B1
:100D40000CE0FFF7B3FD064605E000BFFFF7AEFD80
:100D5000801B6428F0D828688003F7D42078944E4C
:100D600080074FF001094FF000083BD5686810F08C
:100D70000C0F07D06868C0F38100022809D16868A9
:100D8000C00306D42868800714D5206901281FD124
:100D900010E02069B0B1C6F80090FFF787FD074664
:100DA00005E000BFFFF782FDC01B0228C4D82868F9
:100DB0008007F7D52868616920F0F80040EAC10093
:100DC00028600FE0C6F80080FFF770FD074606E0D8
:100DD000E9E000BFFFF76AFDC01B022823D828689E
:100DE0008007F7D4207800072CD57248A169D9B1C3
:100DF000C0F80090FFF75AFD074604E0FFF756FDE4
:100E0000C01B02280FD8686A8007F7D56A484FF4DC
:100E1000FA510068B0FBF1F0009000BF0098411E4D
:100E20000091FAD20EE080E0C0F80080FFF73EFDAE
:100E3000074604E0FFF73AFDC01B022875D8686A30
:100E40008007F7D42078400760D5E8690027C00004
:100E500008D4E86940F08050E861E869012700F0B3
:100E60008050009055480168C90513D40168834635
:100E700041F480710160FFF719FD824606E000BF72
:100E8000FFF714FDA0EB0A0064284ED8DBF8000041
:100E9000C005F5D5E06801280AD008B1052813D0AF
:100EA000286A20F001002862286A20F0040002E08D
:100EB000286A40F001002862E06841F2883B98B15E
:100EC000FFF7F4FC82460BE0286A40F00400286239
:100ED000EEE700BFFFF7EAFCA0EB0A0159455AD83C
:100EE000286A8007F6D50CE0FFF7E0FC824605E0B3
:100EF000FFF7DCFCA0EB0A0159454CD8286A8007B3
:100F0000F6D41FB1E86920F08050E861E06988B349
:100F10006968C1F38101022945D00228C6F86080C2
:100F200004D0FFF7C3FC044638E034E0FFF7BEFC12
:100F3000074604E0FFF7BAFCC01B02282BD828683C
:100F40008001F7D4206AB0F5803F05D16868A168B8
:100F500020F4003008436860D4E908010843696858
:100F600021F4741108436860C6F86090FFF79EFC96
:100F7000044606E015E000BFFFF798FC001B0228BE
:100F800009D828688001F7D50BE000BFFFF78EFC79
:100F9000001B022802D90320BDE8F88F28688001D1
:100FA000F4D40020F8E70120F6E70000001002402A
:100FB00000004242800442420C00002000700040C9
:100FC0004FF0E0210428086903D020F004000861F4
:100FD000704740F00400FAE7704710B5401EB0F1CA
:100FE000807F01D3012010BD4FF0E02460610F210C
:100FF000601700F09AFA0020A0610720206100200D
:1010000010BD10B5FFF7E8FF10BD7047704710B571
:10101000040003D094F83D0010B107E0012010BD9A
:10102000002084F83C00204600F00CF8022084F8F0
:101030003D00211D206800F0E3FA012084F83D0006
:10104000002010BD70470168CA6842F00102CA6002
:101050000068016841F0010101600020704770479D
:1010600070B50446006801694FF00005C94389075F
:1010700015D4C168C943890711D4E91E0161012053
:101080002077206880698007204602D0FFF7E7FFBD
:1010900004E000F098F8204600F096F825772068E4
:1010A0000169C943490717D4C168C943490713D423
:1010B0006FF004010161022020772068806910F43C
:1010C000407F204602D0FFF7CAFF04E000F07BF823
:1010D000204600F079F8257720680169C94309079F
:1010E00016D4C168C943090712D46FF00801016121
:1010F000042020772068C0698007204602D0FFF7CF
:10110000AEFF04E000F05FF8204600F05DF82577C0
:1011100020680169C943C90617D4C168C943C90613
:1011200013D46FF010010161082020772068C06996
:1011300010F4407F204602D0FFF791FF04E000F05A
:1011400042F8204600F040F8257720680169C9433D
:10115000C90708D1C168C943C90704D1891E016103
:10116000204600F033F820680169C943090609D414
:10117000C168C943090605D46FF0800101612046AA
:10118000FFF743FF20680169C943490609D4C168D4
:10119000C943490605D46FF040010161204600F0C3
:1011A0001FF820680169C94389060BD4C168C94387
:1011B000890607D46FF0200101612046BDE8704028
:1011C000FFF724BF70BD70477047000000680349F7
:1011D000884201D1FFF770BB704700000008004053
:1011E0007047704770B5026804461068D16853694B
:1011F00010F00F0F50D003F0010501F49076354345
:101200005DD0C20705D0CA0503D5E26B42F00102EA
:10121000E263420705D5DA0703D0E26B42F002022F
:10122000E263820705D5DA0703D0E26B42F00402DD
:10123000E263020705D5DA0703D0E26B42F0080249
:10124000E263E26B002A33D0800604D5880602D51B
:10125000204600F021FA20684069E16BC0F380105D
:10126000090700D428B3204600F008FA2068416935
:1012700049061AD5416921F040014161606BA0B176
:101280001B494163606BFFF7D9F9002810D0606BF0
:10129000416BBDE870400847830610D58B060ED51C
:1012A0002046BDE8704000F0F7B92046FFF799FFEF
:1012B00070BD2046FFF795FF0020E06370BD030678
:1012C00006D50B0604D52046BDE8704000F0E8BA0C
:1012D0004006F3D54806F1D5D168204621F04001FB
:1012E000D160202184F8391000F01BF970BD000096
:1012F0006D16000870B5040004D094F8390000257C
:1013000010B106E0012070BD84F83850204600F08E
:1013100023F8242084F839002068C16821F40051A2
:10132000C160204600F004FA2068016921F4904170
:1013300001612068416921F02A0141612068C1688A
:1013400041F40051C160E563202084F8390084F83D
:101350003A00002070BD000010B50068154986B045
:10136000884225D11448816941F4804181618069B6
:10137000124C00F4804004904FF400700090022062
:1013800001900320039069462046FFF7B1F9002140
:101390002015CDE90001029169462046FFF7A8F922
:1013A000002211462520FFF731FB2520FFF722FB05
:1013B00006B010BD00380140001002400008014096
:1013C00090F83A30202B22D1F9B1F2B190F83830B0
:1013D000012B1CD081628285C2850021C16322223B
:1013E00080F83A2080F838100168CA6842F48072A8
:1013F000CA6001684A6942F001024A610068C16836
:1014000041F02001C1600020704701207047022098
:1014100070470000124830B40478401F114A4378E6
:101420000021D4540579AC420CD101241BB11A44DB
:1014300012F8012C01E092F82720C3789A4201D1DA
:10144000417084704278521CD2B24270282A00D176
:1014500041700448012230BC01494038FFF7B0BF59
:1014600005000020500000202DE9F843044690F8C4
:1014700039001F4616460D46202850D1A5B19EB111
:1014800094F8380001284AD0012084F838004FF041
:101490000008C4F83C80212084F83900FFF706FAE0
:1014A000A6848146E68426E00120BDE8F883E08C2E
:1014B000401EE084A0684B46B0F5805F4FF000020C
:1014C0004FF080012046009703D000F01AFAE8B9E7
:1014D0000DE000F016FAC8B928882168C0F30800AA
:1014E0004860206908B16D1C05E0AD1C03E021686F
:1014F00015F8010B4860E08C0028D8D14B4600223B
:1015000040212046009700F0FCF908B10320CCE709
:10151000202084F8390084F838800020C5E70220B4
:10152000C3E77047FEE7FEE770470907090E00288A
:1015300006DA00F00F0000F1E02080F8141D70477B
:1015400000F1E02080F80014704770477047FFF703
:1015500058BD10B590B002200090012004901020DA
:101560000024059007946846FFF7A8FB00B1FEE74A
:101570000F20CDE90A040C940D9400210AA80E94C2
:10158000FFF776FA00B1FEE7FFF73CFB4FF47A7104
:10159000B0FBF1F0FFF721FD0420FFF711FD002261
:1015A0001146501EFFF732FA10B010BD0D48016809
:1015B00041F00101016041680B4A1140416001683E
:1015C0000A4A11400160016821F4802101604168EC
:1015D00021F4FE0141604FF41F0181600449C00302
:1015E00008607047001002400000FFF8FFFFF6FEA1
:1015F00008ED00E00148FFF733BD0000780000204F
:10160000F0B50268164B174C174D4FF080479842C3
:1016100005D0B84203D0A04201D0A84203D122F0A5
:1016200070064A683243984205D0B84203D0A042BF
:1016300001D0A84203D122F44074CA68224322F0A8
:1016400080044A69224302608A68C2620A68826230
:10165000984201D10969016301214161F0BD000097
:10166000002C0140000400400008004010B5406A12
:101670000021C185C184FFF7B4FD10BD0168CA68AF
:1016800022F49072CA6001684A6922F001024A613C
:10169000202180F83A10704710B590F83A102229AE
:1016A00001D0022010BD8168B1F5805F11D00169C1
:1016B000002901681FD0496801F07F03816A4A1C34
:1016C00082620B70C18D491E0904090CC18518D0B6
:1016D0002BE00269816A002A0268526805D0D2B202
:1016E0000A80816A491C8162ECE7C2F308020A8021
:1016F000816A891CF7E74A68816A4B1C83620A7019
:10170000E0E70168CA6822F02002CA600168CA687E
:1017100022F48072CA6001684A6922F001024A61BB
:10172000202180F83A10FFF775FE002010BD000060
:101730002DE9F041044600680169E26821F4405156
:10174000114301612169A068084361690843216868
:10175000CA6841F20C639A430243CA602068416937
:10176000A26921F44071114341614C49206864250C
:10177000322688423CD1FFF75BFA00EBC00101EB57
:10178000001061688900B0FBF1F7FFF751FA00EB38
:10179000C00101EB00106168B0468900B0FBF1F0B8
:1017A000B0FBF5F06FF01801484307EB800106EB42
:1017B0000110B0FBF5F000F0F006FFF739FA00EB8E
:1017C000C00101EB001061688900B0FBF1F0B0FBD3
:1017D000F5F006EB0016FFF72BFA00EBC00101EB6A
:1017E000001061688900B0FBF1F7FFF721FA3BE0D8
:1017F000FFF70EFA00EBC00101EB001061688900F1
:10180000B0FBF1F7FFF704FA00EBC00101EB0010A9
:101810006168B0468900B0FBF1F0B0FBF5F06FF005
:101820001801484307EB800106EB0110B0FBF5F00F
:1018300000F0F006FFF7ECF900EBC00101EB00103F
:1018400061688900B0FBF1F0B0FBF5F006EB001623
:10185000FFF7DEF900EBC00101EB001061688900C1
:10186000B0FBF1F7FFF7D4F900EBC00101EB00107A
:1018700061688900B0FBF1F0B0FBF5F06FF0180182
:10188000484307EB800108EB0110B0FBF5F021683D
:1018900000F00F0030448860BDE8F081003801405E
:1018A00090F83910212901D0022070478168B1F5E4
:1018B000805F016A0BD04A1C02620268097851609D
:1018C000C18C491E0904090CC1840ED017E0098897
:1018D0000268C1F30801516001690029016A02D060
:1018E000491C0162ECE7891CFBE70168CA6822F029
:1018F0008002CA600068C16841F04001C1600020F8
:1019000070472DE9F041984617460E460446069D5D
:101910001DE0681C1BD02DB1FEF7C8FFA0EB08002E
:10192000A84214D92068C16821F4D071C160206830
:10193000416921F001014161202084F8390084F8D7
:101940003A00002084F838000320BDE8F0812068C8
:10195000006836EA000004D00020B842D9D0002048
:10196000F3E70120F9E700000148FFF73BBC000066
:1019700010000020FEE700000FB4084B10B504A9CA
:1019800002AA039800F01BF8044602A9002000F008
:101990002CF8204610BC5DF814FB0000EB19000881
:1019A00002E008C8121F08C1002AFAD17047704728
:1019B000002001E001C1121F002AFBD170472DE970
:1019C000F0411E4617460446002508E0252802D1AE
:1019D00014F8010F30B13946B047641C6D1C2078F3
:1019E0000028F3D12846BDE8F0810A68531C0B603B
:1019F0001070704700B58BB06A4609A10948FEF720
:101A000099FB9DF800006F2807D19DF801006B2815
:101A100003D105480178491C01700BB000BD0000DE
:101A200025732000500000200000002008B5FEF7BC
:101A30004BFFFFF78EFD2848816941F0200181614D
:101A4000816901F020010091816941F00401816107
:101A50008069224900F004000090214800250160BF
:101A60004FF46141C0E901150C21C560C0E9045182
:101A70008561C561FFF73EFC1A4C00B1FEE74FF4EB
:101A80007A76771041F288383046FEF723FE2078C8
:101A900040B1012813D00228F6D113A000F03CF881
:101AA000404616E017A000F037F80E490122491D04
:101AB0000B48FFF785FC2078401C2070E4E7A078F5
:101AC00018B1FFF797FFA570DEE712A000F024F829
:101AD0003846FEF7FFFDD7E700100240003801400E
:101AE0001000002000000020646F6E652062726F9D
:101AF000202C206D616D616420726F2062656769C2
:101B0000720000006D616D6164206E6F62617269C8
:101B1000000000002E00000000B58BB001466846B2
:101B2000FFF72AFF6846FEF7FDFA82B26423694692
:101B30000848FFF799FC08A16846FFF71DFF6846B3
:101B4000FEF7F0FA82B2642369460248FFF78CFC84
:101B50000BB000BD100000200D0A000000000000C6
:101B6000000000000102030406070809000000004D
:101B700001020304DDDDDDDDDCBBBBDDDDDDDDDD44
:101B8000DDDDDDDD988888888888888877777777B5
:101B90007788888885555556666666666666666681
:101BA000666888888333333222222222222222222C
:101BB0002228888DD41B000800000020100000009F
:101BC000A0190008E41B000810000020A804000071
:101BD000B019000800000061620000000000000071
:041BE00000A24A0411
:04000005080000ED02
:00000001FF
