:020000040800F2
:1000000000050020010100086D15000869150008B1
:100010006B15000839060008B91900080000000037
:100020000000000000000000000000009115000822
:100030003B060008000000008F150008931500081B
:100040001B0100081B0100081B0100081B01000820
:100050001B0100081B0100081B0100081B01000810
:100060001B0100081B0100081B0100081B01000800
:100070001B0100081B0100081B0100081B010008F0
:100080001B0100081B0100081B0100081B010008E0
:100090001B0100081B0100081B0100081B010008D0
:1000A0001B0100081B0100081B0100081B010008C0
:1000B0001B0100081B010008391600081B0100087D
:1000C0001B0100081B0100081B0100081B010008A0
:1000D0001B010008AD1900081B0100081B010008E6
:1000E0001B0100081B0100081B010008DFF80CD0F1
:1000F00000F0E0F800480047F11A00080005002071
:100100000648804706480047FEE7FEE7FEE7FEE7B1
:10011000FEE7FEE7FEE7FEE7FEE7FEE7F115000873
:10012000ED000008421C10F8011B0029FBD1801AC9
:10013000704700000FB400B58DB010A909900B9066
:1001400000914FF0FF300A9000200C900548069077
:10015000054807906A4609A80F9900F07DF80DB090
:100160005DF814FB75020008930200082DE9FF5F9B
:10017000D2E901A74FF00008916999461446DDF8CD
:1001800038B0464601988847054659EA0B0005D025
:1001900009E0A169761C019888470546216A28462E
:1001A00088470028F5D1681C03D05FEACA7005D0E3
:1001B00015E04FF0FF3004B0BDE8F09F2068011D4E
:1001C0002160D0F800800AE05FEACA7001D108F827
:1001D000015BA169761C7F1E019888470546002FA8
:1001E0001ADD681C18D0B9F1000F0DD0E81705EB27
:1001F000D060421120F01F0059F822102A1A012065
:1002000090400142E0D107E0BBF1000FDCD1216A50
:10021000284688470028D7D0E16901988847BBF174
:10022000000F07D1002E05DD5FEACA7002D1002160
:1002300088F80010A068B84203DDBBF1000F03D0BE
:1002400017B16FF00100B6E73046B4E70268114419
:100250001378016018467047D16004495161044920
:10026000116200211161114600F03CB84D020008F6
:10027000D9020008426842B1016811F8013B23B17C
:10028000521EC0E90012184670470121C160881E45
:10029000704742685AB1C368016843B983688B42AA
:1002A00005D0491E521CC0E90012002070474FF0D3
:1002B000FF307047064C074D06E0E06840F0010350
:1002C00094E8070098471034AC42F6D3FFF712FFCA
:1002D000F41F000814200008C0B24FF4F05100F0E1
:1002E00097B900002DE9F34F8BB04FF0000801F1F2
:1002F0000C000C464FF0010B46460DF1080A019028
:100300006269012101989047051E2DD0252D2CD022
:10031000216A8847C0B16269012101989047216A2A
:1003200088470028F7D1411E62690198904700E094
:10033000761CA1690B988847216A88470028F7D165
:10034000E1690B988847DBE7A1690B988847074666
:10035000A84201D1761CD3E7E1690B9888477F1C3E
:1003600002D1B8F1000F6FD046E1002762693D4627
:100370003946019890472A2804D1626901210198E1
:1003800090470125DFF88492626901210198904726
:10039000A0F130010A290AD24F45E5DC07EB8701BD
:1003A00000EB4107303FDFD445F01005ECE7E906EC
:1003B00001D46FF000476C280AD04C2814D068286C
:1003C00015D06A280DD074281CD07A281AD01DE0C8
:1003D00062690121019890476C2802D045F004051C
:1003E00014E045F002050DE045F020050AE06269E1
:1003F000012101989047682802D045F0080505E0E2
:1004000045F400656269012101989047C4E90157EC
:1004100065283DD019DC58287AD00CDC452837D027
:1004200004DC252826D0412831D131E046282FD0C0
:1004300047282CD12CE05B2877D0612828D063286E
:100440007CD0642823D15AE0D0E06F2848D008DC63
:1004500066281DD067281BD0692821D06E2816D1A8
:1004600027E0702845D0732868D0752847D07828B1
:100470000DD14DE0A1690B988847054625283FF42A
:1004800069AFE1690B9888476D1C3FF46AAFB3E030
:1004900023466A466FF001000B99AFF300809EE09F
:1004A00045F040006060A80723464FF0000236D4B4
:1004B0003EE0E8077FF447AF2068011D2160006837
:1004C000290501D506701BE7290701D5068017E726
:1004D000A90703D5F117C0E9006111E706600FE72E
:1004E00045F040006060A80723464FF0080216D48C
:1004F0001EE040F60E0125EA0100606016E045F0BE
:1005000040006060A80723464FF00A0207D40FE0BE
:1005100045F040006060A80708D5234610226FF020
:1005200001000B99AFF3008059E007E02346102249
:100530006FF001000B99AFF3008050E04FF000091D
:100540004F464B46632802D05B2806D040E0E806C1
:1005500001D40120A06001273AE0626901210198DD
:1005600090475E2805D14FF001096269494601981C
:100570009047216939B900210A46534643F82120A2
:10058000491C0829FADBB0B3216969B9C11700EB2E
:10059000D16253110AEB830122F01F02821A01205B
:1005A0000B68904003430B606269012101989047FA
:1005B0005D28E8D1B9F1000F09D00020514651F86B
:1005C0002020D24341F82020401C0828F7DB02AB52
:1005D000224600976FF001000B99FFF7C7FD002836
:1005E0000CDA401C08D1BBF1000F05D04FF0FF30F2
:1005F0000DB0BDE8F08FFFE74046F9E7E90701D10C
:1006000008F1010806444FF0000B79E6CCCCCC0C85
:100610007F2801D9002208E0064A02EB5002C007F9
:10062000127800D1120902F00F0201209040084018
:1006300070470000B41F0008FEE7704710B590F83F
:1006400021100024022903D00421816301243DE00C
:1006500001680A6822F00E020A6001680A6822F046
:1006600001020A601A4A0168914201D1012121E088
:10067000174A1432914201D110211BE0144A28324A
:10068000914201D1891515E0114A3C32914201D1C4
:1006900089140FE00E4A5032914202D14FF480315A
:1006A00008E00B4A6432914202D14FF4801101E01C
:1006B0004FF08071064A083A5160012180F82110FC
:1006C000002180F82010416B01B18847204610BD01
:1006D0000800024031B500F0E9F8009C0546601CB6
:1006E00000D0641C00F0E2F8401BA042FAD338BDF1
:1006F0002DE9F84FDFF890A100220AF1040B14460F
:1007000001274FF00F090BF1040E00BF0B6807FA29
:1007100004F52B40AB4274D1DFF870C14E68A6EBF4
:100720000C0866452BD00DDC032E34D005DC36B327
:10073000012E19D0022E2FD11BE0112E16D0122E11
:100740002AD119E0B8F5881F19D006DCB8F5803F2A
:1007500015D0B8F5801F1FD111E0B8F5001F0ED0DD
:10076000B8F5041F18D10AE0CA6815E0CA68121D5E
:1007700012E0CA6808320FE0CA680C320CE08A68DE
:100780002AB1012A4FF0080203D0456104E0042297
:1007900002E0056100E00022FF2B01D8064601E0DF
:1007A00000F104064FEA840501D9A5F12005D6F829
:1007B00000C009FA05F82CEA080C02FA05F54CEA23
:1007C000050CC6F800C04D68ED0057D5304DAE6938
:1007D00046F00106AE61AD6924F0030605F001059F
:1007E00000952C4D06EB050CDCF80850A6074FEAE7
:1007F000167809FA08F6B543274EB04202D1002612
:1008000010E03BE0254EB04201D101260AE0244E23
:10081000B04201D1022605E0224EB04201D10326AA
:1008200000E0042606FA08F62E43CCF808604D686E
:10083000DAF80060ED03554601D51E4300E09E4303
:100840002E604D68DBF80060AD035D4601D51E43A8
:1008500000E09E432E604D68DEF80060ED027546B4
:1008600001D51E4300E09E432E604D68AD020E4D43
:100870002E6801D51E4300E09E432E60641C102CA0
:10088000FFF444AFBDE8F88F0004014000001110F0
:10089000001002400000014000080140000C01402F
:1008A00000100140001401400C04014001480068A0
:1008B000704700000C00002002480168491C0160DC
:1008C000704700000C000020074810B5016841F097
:1008D00010010160032000F0B9F8002000F006F8D4
:1008E00000F03EF8002010BD0020024000B5014697
:1008F00087B000221E2000F089F81E2000F07AF850
:100900001348C16941F00401C161C06905A900F043
:1009100004000690684600F055F900F079F90D4999
:100920000D4AB0FBF1F10D48491E0260416040F2F2
:10093000E7320021C0E90321816000F068FB10B1BB
:10094000012007B000BD054800F07DFBF9E700007D
:100950000010024040420F0000080040BC00002090
:10096000224808B5816941F001018161816901F086
:1009700001010091C16941F08051C161C06900F07D
:1009800080500090032000F061F8002211466FF0C3
:100990000B0000F03BF8002211466FF00A0000F057
:1009A00035F8002211466FF0090000F02FF8002200
:1009B0001146501F00F02AF800221146101F00F0C7
:1009C00025F800221146901E00F020F80022114662
:1009D000501E00F01BF80648416821F0E0614160BC
:1009E000416841F00071416008BD00000010024004
:1009F0000000014000F01F020121914040098000E9
:100A000000F1E020C0F8001170470000F0B40E4B78
:100A10001B680C46C3F30223C3F10705042D00D95C
:100A20000425191D072901D2002300E0DB1E012641
:100A300006FA05F1491E214099409E40761E164057
:100A40003143F0BC00F093BD0CED00E0064900F02E
:100A5000070208684FF6FF03184040EA0220034AE5
:100A600010430860704700000CED00E00000FA053C
:100A70002DE9F047DFF83C8105460E46D8F8000026
:100A800000F00700B0420CD2D8F8001021F00701A6
:100A90003143C8F80010D8F8000000F00700B04259
:100AA00063D12878444C800705D56068A96820F098
:100AB000F000084360602878C00745D068680128C6
:100AC00016D02168022816D0890700294DDA6168FE
:100AD00021F0030101436160FFF7E8FE6968074602
:100AE00041F2883001290FD00229814619D027E030
:100AF00021688903E9E78901E7E700BFFFF7D6FE30
:100B0000C11B494501D918E081466068C0F38100E6
:100B10000128F3D118E000BFFFF7C8FEC11B49450B
:100B20000BD86068C0F381000228F5D10CE000BF4B
:100B3000FFF7BCFEC11B494502D90320BDE8F08781
:100B4000606810F00C0FF3D1D8F80010404601F0A7
:100B50000701B1420BD9016821F00701314301605F
:100B6000006800F00700B04201D00120E6E72878D5
:100B7000400705D56068E96820F4E06008436060DC
:100B80002878000706D56068296920F4605040EA9B
:100B9000C100606000F05CF86168084AC1F30311AD
:100BA000515CC840064908600020FFF79FFE002006
:100BB000C4E7000000200240001002409C1F000813
:100BC000100000200F2202600C4A536803F0030358
:100BD0004360536803F0F0038360536803F4E063F9
:100BE000C36052684FF4E06303EAD2020261044832
:100BF000006800F007000860704700000010024025
:100C000000200240014800687047000010000020EA
:100C10000448054900684968044AC1F30221515C4F
:100C2000C84070471000002000100240AC1F0008B0
:100C30000448054900684968044AC1F3C221515C6F
:100C4000C84070471000002000100240AC1F000890
:100C500010B512A385B00FCB8DE80F0013A0144B75
:100C6000006804905A68134802F00C0104290FD060
:100C700008290DD1C2F38344D2031DF8041009D50D
:100C80005A6804ABC2F340429A5CB0FBF2F04843AE
:100C900005B010BD08484843FAE700000203040508
:100CA000060708090A0B0C0D0E0F101001020000B8
:100CB0000010024000127A0000093D002DE9F84FB3
:100CC00004460078B94DC00748D06868C0F3810079
:100CD000012807D06868C0F38100022809D168683C
:100CE000C00306D52868800338D5606800286FD017
:100CF00034E06068B0F5803F0BD010B1B0F5A02FA4
:100D000011D0286820F480302860286820F48020E2
:100D100002E0286840F480302860606888B1FFF7FE
:100D2000C5FD064609E0286840F480202860F0E709
:100D3000FFF7BCFD801B642875D828688003F7D5B1
:100D40000CE0FFF7B3FD064605E000BFFFF7AEFD80
:100D5000801B6428F0D828688003F7D42078944E4C
:100D600080074FF001094FF000083BD5686810F08C
:100D70000C0F07D06868C0F38100022809D16868A9
:100D8000C00306D42868800714D5206901281FD124
:100D900010E02069B0B1C6F80090FFF787FD074664
:100DA00005E000BFFFF782FDC01B0228C4D82868F9
:100DB0008007F7D52868616920F0F80040EAC10093
:100DC00028600FE0C6F80080FFF770FD074606E0D8
:100DD000E9E000BFFFF76AFDC01B022823D828689E
:100DE0008007F7D4207800072CD57248A169D9B1C3
:100DF000C0F80090FFF75AFD074604E0FFF756FDE4
:100E0000C01B02280FD8686A8007F7D56A484FF4DC
:100E1000FA510068B0FBF1F0009000BF0098411E4D
:100E20000091FAD20EE080E0C0F80080FFF73EFDAE
:100E3000074604E0FFF73AFDC01B022875D8686A30
:100E40008007F7D42078400760D5E8690027C00004
:100E500008D4E86940F08050E861E869012700F0B3
:100E60008050009055480168C90513D40168834635
:100E700041F480710160FFF719FD824606E000BF72
:100E8000FFF714FDA0EB0A0064284ED8DBF8000041
:100E9000C005F5D5E06801280AD008B1052813D0AF
:100EA000286A20F001002862286A20F0040002E08D
:100EB000286A40F001002862E06841F2883B98B15E
:100EC000FFF7F4FC82460BE0286A40F00400286239
:100ED000EEE700BFFFF7EAFCA0EB0A0159455AD83C
:100EE000286A8007F6D50CE0FFF7E0FC824605E0B3
:100EF000FFF7DCFCA0EB0A0159454CD8286A8007B3
:100F0000F6D41FB1E86920F08050E861E06988B349
:100F10006968C1F38101022945D00228C6F86080C2
:100F200004D0FFF7C3FC044638E034E0FFF7BEFC12
:100F3000074604E0FFF7BAFCC01B02282BD828683C
:100F40008001F7D4206AB0F5803F05D16868A168B8
:100F500020F4003008436860D4E908010843696858
:100F600021F4741108436860C6F86090FFF79EFC96
:100F7000044606E015E000BFFFF798FC001B0228BE
:100F800009D828688001F7D50BE000BFFFF78EFC79
:100F9000001B022802D90320BDE8F88F28688001D1
:100FA000F4D40020F8E70120F6E70000001002402A
:100FB00000004242800442421000002000700040C5
:100FC0004FF0E0210428086903D020F004000861F4
:100FD000704740F00400FAE7704710B5401EB0F1CA
:100FE000807F01D3012010BD4FF0E02460610F210C
:100FF000601700F0BCFA0020A061072020610020EB
:1010000010BD10B5FFF7E8FF10BD7047704710B571
:10101000040003D094F83D0010B107E0012010BD9A
:10102000002084F83C00204600F00CF8022084F8F0
:101030003D00211D206800F005FB012084F83D00E3
:10104000002010BD70470168CA6842F00102CA6002
:101050000068016841F0010101600020704770479D
:1010600070B50446006801694FF00005C94389075F
:1010700015D4C168C943890711D4E91E0161012053
:101080002077206880698007204602D0FFF7E7FFBD
:1010900004E000F098F8204600F096F825772068E4
:1010A0000169C943490717D4C168C943490713D423
:1010B0006FF004010161022020772068806910F43C
:1010C000407F204602D0FFF7CAFF04E000F07BF823
:1010D000204600F079F8257720680169C94309079F
:1010E00016D4C168C943090712D46FF00801016121
:1010F000042020772068C0698007204602D0FFF7CF
:10110000AEFF04E000F05FF8204600F05DF82577C0
:1011100020680169C943C90617D4C168C943C90613
:1011200013D46FF010010161082020772068C06996
:1011300010F4407F204602D0FFF791FF04E000F05A
:1011400042F8204600F040F8257720680169C9433D
:10115000C90708D1C168C943C90704D1891E016103
:10116000204600F033F820680169C943090609D414
:10117000C168C943090605D46FF0800101612046AA
:10118000FFF743FF20680169C943490609D4C168D4
:10119000C943490605D46FF040010161204600F0C3
:1011A0001FF820680169C94389060BD4C168C94387
:1011B000890607D46FF0200101612046BDE8704028
:1011C000FFF724BF70BD70477047000000680349F7
:1011D000884201D1FFF770BB704700000008004053
:1011E0007047704770B5026804461068D16853694B
:1011F00010F00F0F50D003F0010501F49076354345
:101200005DD0C20705D0CA0503D5E26B42F00102EA
:10121000E263420705D5DA0703D0E26B42F002022F
:10122000E263820705D5DA0703D0E26B42F00402DD
:10123000E263020705D5DA0703D0E26B42F0080249
:10124000E263E26B002A33D0800604D5880602D51B
:10125000204600F043FA20684069E16BC0F380103B
:10126000090700D428B3204600F02AFA2068416913
:1012700049061AD5416921F040014161606BA0B176
:101280001B494163606BFFF7D9F9002810D0606BF0
:10129000416BBDE870400847830610D58B060ED51C
:1012A0002046BDE8704000F019BA2046FFF799FFCC
:1012B00070BD2046FFF795FF0020E06370BD030678
:1012C00006D50B0604D52046BDE8704000F00ABBE9
:1012D0004006F3D54806F1D5D168204621F04001FB
:1012E000D160202184F8391000F03DF970BD000074
:1012F000B116000870B5040004D094F83900002538
:1013000010B106E0012070BD84F83850204600F08E
:1013100023F8242084F839002068C16821F40051A2
:10132000C160204600F026FA2068016921F490414E
:1013300001612068416921F02A0141612068C1688A
:1013400041F40051C160E563202084F8390084F83D
:101350003A00002070BD000070B5244E03680024E0
:10136000234902200322234D86B0B34221D18B6949
:1013700043F480438B618969039201F480410491B5
:101380000102CDE9001069462846FFF7B1F928159A
:10139000CDE90004694628460294FFF7A9F9002226
:1013A00011462520FFF732FB2520FFF723FB06B06F
:1013B00070BD114EB342FAD1CB6943F40033CB6117
:1013C000C969039201F4003104910421CDE90010B0
:1013D00069462846FFF78CF90820CDE900046946E4
:1013E00028460294FFF784F9E1E700000038014045
:1013F00000100240000801400044004090F83A30DC
:10140000202B22D1F9B1F2B190F83830012B1CD049
:1014100081628285C2850021C163222280F83A2040
:1014200080F838100168CA6842F48072CA600168A6
:101430004A6942F001024A610068C16841F0200136
:10144000C1600020704701207047022070470000F3
:10145000144830B40478401F134A017800235454D0
:101460000579AC4210D104460125E47829B1114434
:1014700011F8011CA14204D008E092F82710A14203
:1014800008D10370457005E0491C017001782829D6
:1014900000D103700448012230BC02498038FFF7B4
:1014A000ADBF000005000020940000202DE9F843A6
:1014B000044690F839001F4616460D46202850D1A4
:1014C000A5B19EB194F8380001284AD0012084F8D3
:1014D00038004FF00008C4F83C80212084F839001F
:1014E000FFF7E4F9A6848146E68426E00120BDE802
:1014F000F883E08C401EE084A0684B46B0F5805F26
:101500004FF000024FF080012046009703D000F01A
:101510001AFAE8B90DE000F016FAC8B9288821686F
:10152000C0F308004860206908B16D1C05E0AD1CDF
:1015300003E0216815F8010B4860E08C0028D8D141
:101540004B46002240212046009700F0FCF908B1EC
:101550000320CCE7202084F8390084F8388000206C
:10156000C5E70220C3E77047FEE7FEE770470907BB
:10157000090E002806DA00F00F0000F1E02080F8E4
:10158000141D704700F1E02080F800147047704788
:101590007047FFF736BD10B590B0022000900120D3
:1015A000049010200024059007946846FFF786FBFE
:1015B00000B1FEE70F20CDE90A040C940D94002140
:1015C0000AA80E94FFF754FA00B1FEE7FFF71AFBE2
:1015D0004FF47A71B0FBF1F0FFF7FFFC0420FFF746
:1015E000EFFC00221146501EFFF710FA10B010BD9C
:1015F0000D48016841F00101016041680B4A11404A
:10160000416001680A4A11400160016821F48021AB
:101610000160416821F4FE0141604FF41F018160C7
:101620000449C00308607047001002400000FFF842
:10163000FFFFF6FE08ED00E00148FFF711BD0000D6
:10164000BC000020F0B50268164B174C174D4FF048
:101650008047984205D0B84203D0A04201D0A842AA
:1016600003D122F070064A683243984205D0B8424E
:1016700003D0A04201D0A84203D122F44074CA682A
:10168000224322F080044A69224302608A68C262CF
:101690000A688262984201D10969016301214161AE
:1016A000F0BD0000002C0140000400400008004094
:1016B00010B5406A0021C185C184FFF792FD10BDBD
:1016C0000168CA6822F49072CA6001684A6922F00F
:1016D00001024A61202180F83A10704710B590F855
:1016E0003A10222901D0022010BD8168B1F5805F37
:1016F00011D00169002901681FD0496801F07F03FA
:10170000816A4A1C82620B70C18D491E0904090C52
:10171000C18518D02BE00269816A002A02685268EC
:1017200005D0D2B20A80816A491C8162ECE7C2F31B
:1017300008020A80816A891CF7E74A68816A4B1CA3
:1017400083620A70E0E70168CA6822F02002CA607A
:101750000168CA6822F48072CA6001684A6922F08E
:1017600001024A61202180F83A10FFF771FE002043
:1017700010BD00002DE9F041044600680169E268EF
:1017800021F44051114301612169A0680843616956
:1017900008432168CA6841F20C639A430243CA6055
:1017A00020684169A26921F44071114341614C49AB
:1017B00020686425322688423CD1FFF739FA00EBD5
:1017C000C00101EB001061688900B0FBF1F7FFF781
:1017D0002FFA00EBC00101EB00106168B0468900F0
:1017E000B0FBF1F0B0FBF5F06FF01801484307EBE8
:1017F000800106EB0110B0FBF5F000F0F006FFF7FA
:1018000017FA00EBC00101EB001061688900B0FB22
:10181000F1F0B0FBF5F006EB0016FFF709FA00EB6C
:10182000C00101EB001061688900B0FBF1F7FFF720
:10183000FFF93BE0FFF7ECF900EBC00101EB001012
:1018400061688900B0FBF1F7FFF7E2F900EBC00136
:1018500001EB00106168B0468900B0FBF1F0B0FB0D
:10186000F5F06FF01801484307EB800106EB01101B
:10187000B0FBF5F000F0F006FFF7CAF900EBC0018D
:1018800001EB001061688900B0FBF1F0B0FBF5F0EE
:1018900006EB0016FFF7BCF900EBC00101EB0010EE
:1018A00061688900B0FBF1F7FFF7B2F900EBC00106
:1018B00001EB001061688900B0FBF1F0B0FBF5F0BE
:1018C0006FF01801484307EB800108EB0110B0FBF3
:1018D000F5F0216800F00F0030448860BDE8F08129
:1018E0000038014090F83910212901D002207047BA
:1018F0008168B1F5805F016A0BD04A1C0262026800
:1019000009785160C18C491E0904090CC1840ED0AC
:1019100017E009880268C1F30801516001690029D4
:10192000016A02D0491C0162ECE7891CFBE70168EF
:10193000CA6822F08002CA600068C16841F04001B4
:10194000C160002070472DE9F041984617460E46C9
:101950000446069D1DE0681C1BD02DB1FEF7A6FFB6
:10196000A0EB0800A84214D92068C16821F4D07106
:10197000C1602068416921F001014161202084F8A3
:10198000390084F83A00002084F838000320BDE8CC
:10199000F0812068006836EA000004D00020B842D8
:1019A000D9D00020F3E70120F9E700000148FFF754
:1019B00019BC000014000020FEE700000FB4084B23
:1019C00010B504A902AA039800F01BF8044602A966
:1019D000002000F02CF8204610BC5DF814FB00003D
:1019E0002F1A000802E008C8121F08C1002AFAD105
:1019F00070477047002001E001C1121F002AFBD18F
:101A000070472DE9F0411E4617460446002508E0C0
:101A1000252802D114F8010F30B13946B047641CB3
:101A20006D1C20780028F3D12846BDE8F0810A68B3
:101A3000531C0B601070704700B58BB06A460FA145
:101A40000F48FEF777FB9DF8000061280ED19DF846
:101A5000010063280AD19DF80200632806D10948D5
:101A60008168491C816008A000F076FA09A000F0A6
:101A700073FA684600F070FA0BB000BD25732000C1
:101A80009400002000000020636F6E6E6563746533
:101A9000640000006C6F7261206E6F64653A200014
:101AA00000B58BB06A460CA10C48FEF743FB9DF8CD
:101AB00000006F280DD19DF801006B2803D1084864
:101AC0008168491C816007A000F046FA684600F072
:101AD00043FA0BB000BD00002573200094000020E5
:101AE000000000206C6F7261206E6F64653A200008
:101AF00008B5FEF7E9FEFFF74EFD7248816941F037
:101B000020018161816901F020010091816941F02A
:101B10000401816180696C4900F0040000906B4809
:101B20004FF4614600250160C0E901650C24C560E1
:101B3000C0E904548561C561FFF7DCFB00B1FEE735
:101B40006248634940300160C0E90165C560C0E991
:101B500004548561C561FFF7CDFB00B1FEE75DA0D0
:101B600000F0FAF95D4C4FF4FA777E00657030466C
:101B7000FEF7B0FDA0681028F9D2DFE800F0080AEF
:101B80001C1E2C2E3A3C484A56586774839D54A01C
:101B90005DE0607820B1FFF783FF65705DA012E023
:101BA0004FA000F0B7F95FA000F0D6F94FEA0600A9
:101BB000FEF790FDDBE760A049E0607830B1FFF709
:101BC0006FFF657069A000F0C7F9D0E75AA000F078
:101BD000A1F96AA052E06EA039E0607820B1FFF769
:101BE0005FFF657071A0EEE769A000F093F973A044
:101BF00044E077A02BE0607820B1FFF751FF6570DB
:101C000077A0E0E772A000F085F979A036E07DA02A
:101C10001DE0607820B1FFF743FF65707EA0D2E73A
:101C200078A000F077F980A028E085A00FE0607828
:101C300038B1FFF735FF657084A000F08DF987A0FB
:101C4000C1E77FA000F066F98AA017E08EA000F03F
:101C500061F922490122491D1C48FFF7CFFBA0680A
:101C6000401CA06083E7607820B1FFF719FF657022
:101C700089A0A8E784A000F04DF98CA000F06CF9D1
:101C8000384695E7607818B1FFF7D6FE65706EE7C5
:101C90008CA000F061F93846FEF71CFDA0780528FD
:101CA00006D18DA000F058F9A068401EA060A57074
:101CB000A078401CA0705AE78CA000F02BF991A0EE
:101CC00072E70000001002400038014014000020BC
:101CD0000044004073616C616D0000000000002052
:101CE0006D616320736574206E776B736B6579200B
:101CF000313233343536373831323334353637389C
:101D0000313233343536373831323334353637388B
:101D10000000000061636B206F66206E776B736B51
:101D2000657900006E77736B65792073656E64204A
:101D3000616761696E0000006D61632073657420E6
:101D4000617070736B6579203132333435363738D2
:101D5000313233343536373831323334353637383B
:101D600031323334353637380000000061636B2080
:101D70006F6620617070736B6579000061707073BD
:101D80006B65792073656E6420616761696E000020
:101D90006D6163207365742064657661646472208C
:101DA00030303142344435350000000061636B202F
:101DB0006F662064657661646472000064657661B4
:101DC0006464722073656E6420616761696E0000EF
:101DD0006D61632073657420616472206F6E000012
:101DE00061636B206F6620616472206F6E0000007B
:101DF000616472206F6E2073656E64206167616933
:101E00006E000000726164696F20736574207077E2
:101E1000722031340000000061636B206F66207017
:101E20007772203134000000726164696F2070772E
:101E3000722073656E6420616761696E0000000046
:101E40006D616320736176650000000061636B2043
:101E50006F66206D6163207361766500636F6E66E7
:101E60006775726174696F6E20697320646F6E6547
:101E7000000000006D616320736176652073656EFC
:101E80006420616761696E006D6163206A6F696ECD
:101E9000206162700000000061636B206F66206D3E
:101EA0006163206A6F696E20616270006D616320FA
:101EB0006A6F696E206162702073656E642061676D
:101EC00061696E007761697420666F722061636377
:101ED0006570746564000000636F6E6E656374699D
:101EE0006F6E206973206661696C00006D6163200C
:101EF000747820756E636E6620312073616C616D3D
:101F00000000000073656E647C73616C616D7C2DF4
:101F10007564700000B599B001466846FFF74EFD44
:101F20006846FEF7FFF882B2642369460848FFF767
:101F3000BDFA08A16846FFF741FD6846FEF7F2F8D2
:101F400082B2642369460248FFF7B0FA19B000BDB7
:101F5000140000200D0A000000B599B00146684643
:101F6000FFF72CFD6846FEF7DDF882B26423694670
:101F70000848FFF79BFA08A16846FFF71FFD68466F
:101F8000FEF7D0F882B2642369460248FFF78EFA62
:101F900019B000BD540000200D0A00000000000030
:101FA0000000000001020304060708090000000009
:101FB00001020304DDDDDDDDDCBBBBDDDDDDDDDD00
:101FC000DDDDDDDD98888888888888887777777771
:101FD000778888888555555666666666666666663D
:101FE00066688888833333322222222222222222E8
:101FF0002228888D14200008000000201400000012
:10200000E41900082820000814000020EC04000057
:10201000F4190008000000616200000000000000E8
:082020000000000000A24A04C8
:04000005080000ED02
:00000001FF
