:020000040800F2
:100000007804002001010008471300088B12000843
:10001000451300086D010008751400080000000079
:100020000000000000000000000000004B1300086A
:100030006F01000800000000491300084D1300087C
:100040001B0100081B0100081B0100081B01000820
:100050001B0100081B0100081B0100081B01000810
:100060001B0100081B0100081B0100081B01000800
:100070001B0100081B0100081B0100081B010008F0
:100080001B0100081B0100081B0100085D1400088B
:10009000691400081B0100081B0100081B0100086F
:1000A0001B0100081B0100081B0100081B010008C0
:1000B0001B0100081B010008E51300081B010008D4
:1000C0001B0100081B0100081B0100081B010008A0
:1000D0001B0100081B0100081B0100081B01000890
:1000E0001B0100081B0100081B010008DFF80CD0F1
:1000F00000F02AF800480047B514000878040020F2
:100100000648804706480047FEE7FEE7FEE7FEE7B1
:10011000FEE7FEE7FEE7FEE7FEE7FEE79D130008C9
:10012000ED000008D2B201E000F8012B491EFBD21D
:1001300070470022F6E710B513460A4604461946F2
:10014000FFF7F0FF204610BD064C074D06E0E068C3
:1001500040F0010394E8070098471034AC42F6D30E
:10016000FFF7C8FF5C1500087C150008FEE7704724
:1001700090F82020012A07D0022A05D0416A41F4D4
:100180008021416201207047006842690A43426150
:100190000020704710B590F820300268012B07D07E
:1001A000022B05D0416A41F480214162012010BD3B
:1001B000D2F8000240F00100C2F80002087D00F011
:1001C0001F0301209840D2F81C328343C2F81C322E
:1001D000CB69B3B9D2F80C328343C2F80C328C89A4
:1001E0004B6864F31F434C6902EBC404C4F840320B
:1001F0000C890B6864F31F434C6902EBC404C4F818
:100200004432CB69012B16D1D2F80C320343C2F829
:100210000C320C884B6864F31F434C6902EBC40436
:10022000C4F840320C89CB6864F31F434C6902EB7D
:10023000C404C4F844328B69002BD2F804320FD0C6
:1002400053EA0003C2F804320B69002BD2F81432CF
:1002500008D00343C2F81432096A012904D008E027
:100260008343EFE78343F5E7D2F81C120143C2F85A
:100270001C12D2F8000220F00100C2F80002002097
:1002800010BD704730B590F82040012C05D0022CED
:1002900003D0416A41F480215DE00468002955D013
:1002A0002469A40754D04FF4D874056804EB0114F2
:1002B0002D5915F00405956005682D594ED0ED08AF
:1002C000556005682C5904F00204D4604FF4DA74C8
:1002D000056804EB01142D5905F00F05156105683B
:1002E0002D59C5F30725956105682C59240C5461D7
:1002F0004FF4DC72046802EB0112A4581C7004680D
:10030000A458240A5C700468A458240C9C700468E7
:10031000A258120EDA704FF4DE72046802EB01127A
:10032000A4581C710468A458240A5C710468A45879
:10033000240C9C710468A258120EDA71006881B115
:10034000016941F020010161002030BDE468A8E7A7
:10035000416A41F400114162012030BD6D0D15600C
:10036000AFE7C16841F02001C160EDE72DE9F05F22
:100370000546006800244669D0F804908768D0F8E4
:100380000CB0D0F810A0D0F81880F10748D0F907C9
:1003900014D001218160B80703D5284600F005FA82
:1003A0000CE0780702D54FF4006407E0380702D567
:1003B0004FF4805402E0284600F0F6F9F80516D50F
:1003C00029684FF480708860B80503D5284600F08E
:1003D000EEF90CE0780502D544F4005407E0380546
:1003E00002D544F4804402E0284600F0DFF9F80327
:1003F00016D529684FF480308860B80303D52846A5
:1004000000F0D7F90CE0780302D544F4004407E08B
:10041000380302D544F4803402E0284600F0C8F9DD
:10042000300707D55FEACB6004D52968102044F473
:100430000074C86070074FF0080707D55FEA0B70BB
:1004400004D52868C760284600F06EF9B00706D5C5
:100450002868C068800702D0284600F067F9700657
:1004600007D55FEACA6004D52968102044F4806487
:100470000861B00607D55FEA0A7004D528680761ED
:10048000284600F061F9F00606D528680069800763
:1004900002D0284600F059F9B00308D55FEAC960D8
:1004A00005D5296810204860284600F04FF9F00370
:1004B00007D55FEA097004D528684760284600F030
:1004C0009FF9300446D55FEA497040D5F00504D560
:1004D0005FEAC87001D044F00104B00504D55FEABA
:1004E000887001D544F00204700504D55FEA4870B5
:1004F00001D544F00404300529D518F0700F26D03A
:1005000008F07000402815D006DC102809D02028FB
:100510000AD0302816D10AE050280ED0602811D118
:100520000EE044F008040DE044F010040AE044F04A
:10053000200407E044F0400404E044F0800401E0BB
:1005400044F480742868816921F070018161296810
:1005500004204860002C05D0686A20436862284661
:10056000FFF78FFEBDE8F09F70B5040003D094F84C
:10057000200010B104E0012070BD204600F082F898
:100580002068016821F00201016000F049FA054687
:10059000052604E000F044FA401B0A2811D8206820
:1005A00040688007F6D42068016841F001010160CD
:1005B00000F036FA05460BE000F032FA401B0A283C
:1005C00006D9606A40F40030606284F82060D2E7A7
:1005D00020684068C007EFD0207E012820680168AD
:1005E0003DD021F080010160607E01282068016813
:1005F00038D021F040010160A07E01282068016808
:1006000033D021F020010160E07E012820680168DC
:100610002ED041F010010160207F01282068016880
:1006200029D021F008010160607F0128206801685D
:1006300024D021F004010160D4E902010843D4E987
:100640000412114308436168491E08432168C861C8
:1006500000206062012084F82000002070BD41F07D
:100660008001C0E741F04001C5E741F02001CAE741
:1006700021F01001CFE741F00801D4E741F0040177
:10068000D9E7000010B586B00021009101910291D8
:1006900003910068204988423BD12048C16941F05C
:1006A0000071C161C16901F000710491816941F07B
:1006B0000801816180691A4C00F0080004904FF431
:1006C000807000906946204600F0AEF860150090FA
:1006D00002200190032003906946204600F0A4F810
:1006E0001048416821F4C04141F0E06141F480418B
:1006F000416000221146132000F018FA132000F088
:1007000007FA00221146142000F010FA142000F01D
:10071000FFF906B010BD0000006400400010024068
:10072000000C0140000001407047000010B54FF47C
:100730000051044800F068F9BDE8104041F28830EB
:1007400000F060B80010014070477047704700002B
:1007500070B5044690F82000012804D0606A40F487
:100760000020606218E0022084F820002068016800
:1007700021F00101016000F053F905460EE000BFD1
:1007800000F04EF9401B0A2808D9606A40F4003096
:100790006062052084F82000012070BD2068406858
:1007A000C007EDD1606270BD7047704770477047F9
:1007B0007047704708B500210091104A90F820104A
:1007C000012905D0022903D0416A41F480210CE0BF
:1007D00001680B6823F002030B600099491C00912B
:1007E000914205D9416A41F400314162012008BDBE
:1007F000016849688907F0D4002008BD40420F0015
:100800007047000070B5044600F00AF90546601C08
:1008100002D004480078044400F002F9401BA042D2
:10082000FAD370BD000000202DE9F84FDFF8B89131
:10083000002409F1040A0AF1040B23460F270BF1E7
:10084000040EC9E00125A5402A40AA427DD1674E89
:10085000D1F804C0ACEB0608B44532D014DCBCF1CE
:10086000030F3AD009DCBCF1000F2AD0BCF1010F14
:100870001CD0BCF1020F31D11DE0BCF1110F17D01B
:10088000BCF1120F2AD119E0B8F5881F19D006DC87
:10089000B8F5803F15D0B8F5801F1FD111E0B8F52D
:1008A000001F0ED0B8F5041F18D10AE0CB6815E080
:1008B000CB681B1D12E0CB6808330FE0CB680C330C
:1008C0000CE08B682BB1012B4FF0080303D045617E
:1008D00004E0042302E0056100E00023FF2A01D8C0
:1008E000064601E000F104064FEA840501D9A5F1AE
:1008F0002005D6F8008007FA05FC28EA0C0803FA60
:1009000005F548EA0508C6F800804D68ED0062D597
:10091000374DAE6946F00106AE61AD6924F00306BD
:1009200005F001050095334D06EB050CDCF8085089
:10093000A607360F07FA06F825EA0805DFF8B8809B
:10094000404503D14FF0000817E044E0DFF8AC80E9
:10095000404502D14FF001080FE0DFF8A480404588
:1009600002D14FF0020808E0DFF89880404502D13C
:100970004FF0030801E04FF0040808FA06F848EACF
:100980000508CCF808804D68D9F80060ED034D46A5
:1009900001D5164300E096432E604D68DAF80060FA
:1009A000AD03554601D5164300E096432E604D68D1
:1009B000DBF80060ED025D4601D5164300E096438A
:1009C0002E604D68DEF80060AD02754601D5164315
:1009D00000E096432E60641C0D682A46E5407FF4D3
:1009E00031AFBDE8F88F0000000401400000111095
:1009F000001002400000014000080140000C0140CE
:100A00000010014000140140C2680A4201D0416157
:100A10007047016170470AB1016170470904FBE743
:100A2000014880687047000000000020024881688B
:100A3000027811448160704700000020074810B51B
:100A4000016841F010010160032000F08FF80020E0
:100A500000F006F800F03EF8002010BD0020024033
:100A600000B5014687B000221E2000F05FF81E206E
:100A700000F04EF81348C16941F00401C161C0693A
:100A800005A900F004000690684600F017F900F090
:100A900035F90D494000B0FBF1F10D480B4A491EF4
:100AA0000260416040F2E7320021C0E90321816029
:100AB00000F0FCFA10B1012007B000BD044800F0BE
:100AC00011FBF9E70010024040420F00000800400F
:100AD000380000200C4808B5816941F001018161AE
:100AE000816901F001010091C16941F08051C1614A
:100AF000C06900F0805000900448416821F0E06136
:100B000041F00071416008BD00100240000001404A
:100B1000002809DB00F01F020121914040098000FC
:100B200000F1E020C0F8001170470000F0B40E4B57
:100B30001B680C46C3F30223C3F10705042D00D93B
:100B40000425191D072901D2002300E0DB1E012620
:100B500006FA05F1491E214099409E40761E164036
:100B60003143F0BC00F087BC0CED00E0064900F01A
:100B7000070208684FF6FF03184040EA0220034AC4
:100B800010430860704700000CED00E00000FA051B
:100B90002DE9F0470F46050061D0434E306800F064
:100BA0000700B84209D2306820F0070038433060AF
:100BB000306800F00700B84251D128683B4C8107EB
:100BC00012D5400703D5606840F4E0606060287883
:100BD000000703D5606840F4605060606068A968F1
:100BE00020F0F000084360602878C00728D06868CB
:100BF000012810D02168022810D0890700292EDA98
:100C0000616821F0030101436160FFF709FF80463D
:100C100041F288390DE021688903EFE78901EDE7AA
:100C2000FFF7FEFEA0EB0801494502D90320BDE80D
:100C3000F0876068696800F00C00B0EB810FEFD1BD
:100C4000306800F00700B8420BD9306820F0070088
:100C500038433060306800F00700B84201D001200E
:100C6000E5E72878400705D56068E96820F4E0608A
:100C7000084360602878000706D56068296920F479
:100C8000605040EAC100606000F048F86168084ABE
:100C9000C1F30311515CC84006490860064800686A
:100CA000FFF7DEFE0020C2E70020024000100240F5
:100CB000441500080C000020040000200F220260F0
:100CC0000C4A536803F003034360536803F0F003D6
:100CD0008360536803F4E063C36052684FF4E063D9
:100CE00003EAD20202610448006800F007000860CD
:100CF00070470000001002400020024004480549EF
:100D000000684968044AC1F30221515CC840704739
:100D10000C000020001002405415000812A185B0FC
:100D20000FC98DE80F0014A0144A006804905168A0
:100D3000134801F00C03042B10D0082B0ED1C1F383
:100D40008343C9031DF803000AD5516804AAC1F3FF
:100D50004041515C0A4A5043B0FBF1F005B0704786
:100D600008494843FAE7000002030405060708099A
:100D70000A0B0C0D0E0F10100102000000100240B3
:100D800000127A0000093D002DE9F84F040070D0F0
:100D90002078C04DC00749D06868C0F381000128A1
:100DA00007D06868C0F38100022809D16868C003D1
:100DB00006D52868800339D560680028E7D035E07B
:100DC0006068B0F5803F0BD010B1B0F5A02F11D006
:100DD000286820F480302860286820F4802002E011
:100DE000286840F480302860606890B1FFF718FEF2
:100DF00006460AE0286840F480202860F0E700BF3B
:100E0000FFF70EFE801B642873D828688003F7D58F
:100E10000CE0FFF705FE064605E000BFFFF700FE09
:100E2000801B6428F0D828688003F7D420789A4E75
:100E300080074FF001094FF0000839D5686810F0BD
:100E40000C0F07D06868C0F38100022809D16868D8
:100E5000C00306D42868800714D52069012808D16A
:100E600010E02069B0B1C6F80090FFF7D9FD074641
:100E700005E00AE1FFF7D4FDC01B0228C4D82868AA
:100E80008007F7D52868616920F0F80040EAC100C2
:100E900028600DE0C6F80080FFF7C2FD074604E0B9
:100EA000FFF7BEFDC01B022823D828688007F7D4AF
:100EB000207800072CD57948A169D9B1C0F80090F5
:100EC000FFF7AEFD074604E0FFF7AAFDC01B0228AE
:100ED0000FD8686A8007F7D571484FF4FA51006857
:100EE000B0FBF1F0009000BF0098411E0091FAD2D3
:100EF0000EE080E0C0F80080FFF792FD074604E0B6
:100F0000FFF78EFDC01B022875D8686A8007F7D4EA
:100F10002078400760D5E8690027C00008D4E86958
:100F200040F08050E861E869012700F080500090AF
:100F30005C480168C90513D40168834641F4807197
:100F40000160FFF76DFD824606E000BFFFF768FD18
:100F5000A0EB0A0064284ED8DBF80000C005F5D5E8
:100F6000E06801280AD008B1052813D0286A20F0CB
:100F700001002862286A20F0040002E0286A40F09C
:100F800001002862E06841F2883B98B1FFF748FD14
:100F900082460BE0286A40F004002862EEE700BFBA
:100FA000FFF73EFDA0EB0A0159455AD8286A800791
:100FB000F6D50CE0FFF734FD824605E0FFF730FD83
:100FC000A0EB0A0159454CD8286A8007F6D41FB116
:100FD000E86920F08050E861E06988B36968C1F38E
:100FE0008101022944D00228C6F8608004D0FFF7AE
:100FF00017FD044638E034E0FFF712FD074604E031
:10100000FFF70EFDC01B02282BD828688001F7D4FB
:10101000206AB0F5803F05D16868A16820F40030EF
:1010200008436860D4E908010843696821F4741131
:1010300008436860C6F86090FFF7F2FC044606E0DB
:1010400025E000BFFFF7ECFC001B022809D8286848
:101050008001F7D51BE000BFFFF7E2FC001B022870
:1010600002D90320BDE8F88F28688001F4D40EE08F
:101070000128F7D06868226A00F48031914204D1D7
:10108000616A00F47010884201D00120EAE7002074
:10109000E8E70000001002400000424280044242A3
:1010A0000C000020007000407047704710B504002D
:1010B00003D094F83D0010B107E0012010BD0020DE
:1010C00084F83C00204600F00CF8022084F83D0033
:1010D000211D206800F08CF9012084F83D000020DB
:1010E00010BD70470168CA6842F00102CA6000681A
:1010F000816801F00701062903D0016841F0010170
:10110000016000207047704770B5044600680169AF
:101110004FF00005C943890715D4C168C943890741
:1011200011D4E91E016101202077206880698007C1
:10113000204602D0FFF7E7FF04E000F098F82046D1
:1011400000F096F8257720680169C943490717D44C
:10115000C168C943490713D46FF00401016102203B
:1011600020772068806910F4407F204602D0FFF786
:10117000CAFF04E000F07BF8204600F079F82577FC
:1011800020680169C943090716D4C168C943090722
:1011900012D46FF008010161042020772068C06933
:1011A0008007204602D0FFF7AEFF04E000F05FF8B2
:1011B000204600F05DF8257720680169C943C9061B
:1011C00017D4C168C943C90613D46FF01001016177
:1011D000082020772068C06910F4407F204602D0A4
:1011E000FFF791FF04E000F042F8204600F040F8DD
:1011F000257720680169C943C90708D1C168C94377
:10120000C90704D1891E0161204600F033F8206827
:101210000169C943090609D4C168C943090605D44F
:101220006FF0800101612046FFF73EFF20680169F1
:10123000C943490609D4C168C943490605D46FF0BA
:1012400040010161204600F01FF820680169C94390
:1012500089060BD4C168C943890607D46FF0200101
:1012600001612046BDE87040FFF71FBF70BD7047A9
:101270007047000000680349884201D1FFF7D6BBE0
:1012800070470000000800407047FEE70C480B491B
:101290004FF4E02201600621416000218160C0E935
:1012A00003124FF4001242610176012242768176E8
:1012B000C17601774177FFF757B90000006400401D
:1012C0001000002070B586B000241C4800940194E2
:1012D00002940394816941F010018161816901F0F8
:1012E00010010491816941F020018161816901F05F
:1012F00020010491816941F004018161816901F05B
:1013000004010491816941F00801816180690C4EFA
:1013100000F008004FF400550490002229463046A2
:10132000FFF779FB01200095CDE90104022003902D
:1013300069463046FFF778FA06B070BD00100240EB
:1013400000100140FEE7704770477047704730B5A6
:101350008FB028216846FEF7ECFE14210AA8FEF79C
:10136000E8FE01210804CDE90010002402940225C2
:101370000491CDE907504FF4E01009906846FFF75B
:1013800003FD0F20CDE90A056802CDE90C400221DA
:101390000AA80E94FFF7FCFB0FB030BD0D480168A2
:1013A00041F00101016041680B4A11404160016850
:1013B0000A4A11400160016821F4802101604168FE
:1013C00021F4FE0141604FF41F0181600449C00314
:1013D00008607047001002400000FFF8FFFFF6FEB3
:1013E00008ED00E00148FFF78FBE00003800002044
:1013F000F0B50268164B174C174D4FF080479842D6
:1014000005D0B84203D0A04201D0A84203D122F0B7
:1014100070064A683243984205D0B84203D0A042D1
:1014200001D0A84203D122F44074CA6822434C6917
:1014300022F08002224302608A68C2620A688262E5
:10144000984201D10969016301214161F0BD0000A9
:10145000002C014000040040000800400148FEF755
:1014600085BF0000100000200148FEF77FBF00008C
:1014700010000020FEE70907090E002804DB00F138
:10148000E02080F80014704700F00F0000F1E02029
:1014900080F8141D704702E008C8121F08C1002A16
:1014A000FAD170477047002001E001C1121F002AE5
:1014B000FBD1704792B0FFF7C1FAFFF748FFFFF783
:1014C00001FFFFF7E3FE1D48FFF742F91B48FFF756
:1014D00071F902211948FEF74BFE00244FF6FF7008
:1014E000CDE90004049407940694694613480894CF
:1014F000FEF750FE04200E904FF40D700A900C94ED
:101500000D94FF200E4D4FF400544FF47A76109056
:1015100021462846FFF778FA3046FFF773F911ABFA
:101520000AAA00210548FEF7ADFE21462846FFF72E
:101530006BFA3220FFF766F9EAE70000100000209E
:101540000010014000000000000000000102030440
:101550000607080900000000010203047C150008CA
:101560000000002010000000961400088C150008F0
:101570001000002068040000A6140008010000000C
:0C15800010000000000000000024F40037
:04000005080000ED02
:00000001FF
